{
  "_format": "hh-sol-artifact-1",
  "contractName": "Voting",
  "sourceName": "contracts/Voting.sol",
  "abi": [
    {
      "inputs": [],
      "stateMutability": "nonpayable",
      "type": "constructor"
    },
    {
      "anonymous": false,
      "inputs": [
        {
          "indexed": false,
          "internalType": "uint256",
          "name": "pollId",
          "type": "uint256"
        },
        {
          "indexed": false,
          "internalType": "address",
          "name": "owner",
          "type": "address"
        },
        {
          "indexed": false,
          "internalType": "string",
          "name": "name",
          "type": "string"
        },
        {
          "indexed": false,
          "internalType": "string",
          "name": "description",
          "type": "string"
        },
        {
          "indexed": false,
          "internalType": "uint256",
          "name": "start_time",
          "type": "uint256"
        },
        {
          "indexed": false,
          "internalType": "uint256",
          "name": "end_time",
          "type": "uint256"
        },
        {
          "indexed": false,
          "internalType": "uint256",
          "name": "fee",
          "type": "uint256"
        },
        {
          "indexed": false,
          "internalType": "string[]",
          "name": "options",
          "type": "string[]"
        }
      ],
      "name": "createPollEvt",
      "type": "event"
    },
    {
      "inputs": [
        {
          "internalType": "string",
          "name": "name",
          "type": "string"
        },
        {
          "internalType": "string",
          "name": "description",
          "type": "string"
        },
        {
          "internalType": "uint256",
          "name": "start_time",
          "type": "uint256"
        },
        {
          "internalType": "uint256",
          "name": "end_time",
          "type": "uint256"
        },
        {
          "internalType": "uint256",
          "name": "fee",
          "type": "uint256"
        },
        {
          "internalType": "string[]",
          "name": "options",
          "type": "string[]"
        }
      ],
      "name": "createPoll",
      "outputs": [],
      "stateMutability": "nonpayable",
      "type": "function"
    },
    {
      "inputs": [
        {
          "internalType": "string",
          "name": "username",
          "type": "string"
        }
      ],
      "name": "createUser",
      "outputs": [],
      "stateMutability": "nonpayable",
      "type": "function"
    },
    {
      "inputs": [],
      "name": "getPolls",
      "outputs": [
        {
          "components": [
            {
              "internalType": "address[]",
              "name": "poll_owners",
              "type": "address[]"
            },
            {
              "internalType": "string[]",
              "name": "poll_names",
              "type": "string[]"
            },
            {
              "internalType": "string[]",
              "name": "poll_descriptions",
              "type": "string[]"
            },
            {
              "internalType": "uint256[]",
              "name": "poll_start_times",
              "type": "uint256[]"
            },
            {
              "internalType": "uint256[]",
              "name": "poll_end_times",
              "type": "uint256[]"
            },
            {
              "internalType": "uint256[]",
              "name": "poll_fees",
              "type": "uint256[]"
            },
            {
              "internalType": "uint256[]",
              "name": "poll_ids",
              "type": "uint256[]"
            },
            {
              "internalType": "string[][]",
              "name": "poll_options",
              "type": "string[][]"
            },
            {
              "internalType": "uint256[][]",
              "name": "poll_options_votes",
              "type": "uint256[][]"
            },
            {
              "internalType": "uint256[]",
              "name": "poll_voted_idxs",
              "type": "uint256[]"
            }
          ],
          "internalType": "struct Voting.GetVotesReturn",
          "name": "poll_data",
          "type": "tuple"
        }
      ],
      "stateMutability": "view",
      "type": "function"
    },
    {
      "inputs": [],
      "name": "getUser",
      "outputs": [
        {
          "internalType": "string",
          "name": "username",
          "type": "string"
        }
      ],
      "stateMutability": "view",
      "type": "function"
    },
    {
      "inputs": [],
      "name": "owner",
      "outputs": [
        {
          "internalType": "address",
          "name": "",
          "type": "address"
        }
      ],
      "stateMutability": "view",
      "type": "function"
    },
    {
      "inputs": [
        {
          "internalType": "uint256",
          "name": "poll_id",
          "type": "uint256"
        },
        {
          "internalType": "uint256",
          "name": "option_id",
          "type": "uint256"
        }
      ],
      "name": "vote",
      "outputs": [],
      "stateMutability": "payable",
      "type": "function"
    }
  ],
  "bytecode": "0x608060405234801561001057600080fd5b5033600460006101000a81548173ffffffffffffffffffffffffffffffffffffffff021916908373ffffffffffffffffffffffffffffffffffffffff160217905550612760806100616000396000f3fe6080604052600436106100555760003560e01c8063120fe89b1461005a578063507ffba514610085578063832880e7146100ae5780638da5cb5b146100d957806396db255114610104578063b384abef1461012d575b600080fd5b34801561006657600080fd5b5061006f610149565b60405161007c91906120f0565b60405180910390f35b34801561009157600080fd5b506100ac60048036038101906100a791906118c8565b610e0d565b005b3480156100ba57600080fd5b506100c3610ed3565b6040516100d0919061200e565b60405180910390f35b3480156100e557600080fd5b506100ee610fa2565b6040516100fb9190611ff3565b60405180910390f35b34801561011057600080fd5b5061012b60048036038101906101269190611909565b610fc8565b005b610147600480360381019061014291906119da565b61124e565b005b6101516115e1565b6000805467ffffffffffffffff811115610194577f4e487b7100000000000000000000000000000000000000000000000000000000600052604160045260246000fd5b6040519080825280602002602001820160405280156101c25781602001602082028036833780820191505090505b5090506000805467ffffffffffffffff811115610208577f4e487b7100000000000000000000000000000000000000000000000000000000600052604160045260246000fd5b60405190808252806020026020018201604052801561023b57816020015b60608152602001906001900390816102265790505b5090506000805467ffffffffffffffff811115610281577f4e487b7100000000000000000000000000000000000000000000000000000000600052604160045260246000fd5b6040519080825280602002602001820160405280156102b457816020015b606081526020019060019003908161029f5790505b5090506000805467ffffffffffffffff8111156102fa577f4e487b7100000000000000000000000000000000000000000000000000000000600052604160045260246000fd5b6040519080825280602002602001820160405280156103285781602001602082028036833780820191505090505b5090506000805467ffffffffffffffff81111561036e577f4e487b7100000000000000000000000000000000000000000000000000000000600052604160045260246000fd5b60405190808252806020026020018201604052801561039c5781602001602082028036833780820191505090505b5090506000805467ffffffffffffffff8111156103e2577f4e487b7100000000000000000000000000000000000000000000000000000000600052604160045260246000fd5b6040519080825280602002602001820160405280156104105781602001602082028036833780820191505090505b5090506000805467ffffffffffffffff811115610456577f4e487b7100000000000000000000000000000000000000000000000000000000600052604160045260246000fd5b6040519080825280602002602001820160405280156104845781602001602082028036833780820191505090505b5090506000805467ffffffffffffffff8111156104ca577f4e487b7100000000000000000000000000000000000000000000000000000000600052604160045260246000fd5b6040519080825280602002602001820160405280156104f85781602001602082028036833780820191505090505b5090506000805467ffffffffffffffff81111561053e577f4e487b7100000000000000000000000000000000000000000000000000000000600052604160045260246000fd5b60405190808252806020026020018201604052801561057157816020015b606081526020019060019003908161055c5790505b5090506000805467ffffffffffffffff8111156105b7577f4e487b7100000000000000000000000000000000000000000000000000000000600052604160045260246000fd5b6040519080825280602002602001820160405280156105ea57816020015b60608152602001906001900390816105d55790505b50905060005b600054811015610db7576003600082815260200190815260200160002060000160009054906101000a900473ffffffffffffffffffffffffffffffffffffffff168b828151811061066a577f4e487b7100000000000000000000000000000000000000000000000000000000600052603260045260246000fd5b602002602001019073ffffffffffffffffffffffffffffffffffffffff16908173ffffffffffffffffffffffffffffffffffffffff16815250506003600082815260200190815260200160002060010180546106c590612461565b80601f01602080910402602001604051908101604052809291908181526020018280546106f190612461565b801561073e5780601f106107135761010080835404028352916020019161073e565b820191906000526020600020905b81548152906001019060200180831161072157829003601f168201915b50505050508a828151811061077c577f4e487b7100000000000000000000000000000000000000000000000000000000600052603260045260246000fd5b60200260200101819052506003600082815260200190815260200160002060020180546107a890612461565b80601f01602080910402602001604051908101604052809291908181526020018280546107d490612461565b80156108215780601f106107f657610100808354040283529160200191610821565b820191906000526020600020905b81548152906001019060200180831161080457829003601f168201915b505050505089828151811061085f577f4e487b7100000000000000000000000000000000000000000000000000000000600052603260045260246000fd5b602002602001018190525060036000828152602001908152602001600020600301548882815181106108ba577f4e487b7100000000000000000000000000000000000000000000000000000000600052603260045260246000fd5b6020026020010181815250506003600082815260200190815260200160002060040154878281518110610916577f4e487b7100000000000000000000000000000000000000000000000000000000600052603260045260246000fd5b6020026020010181815250506003600082815260200190815260200160002060050154868281518110610972577f4e487b7100000000000000000000000000000000000000000000000000000000600052603260045260246000fd5b602002602001018181525050808582815181106109b8577f4e487b7100000000000000000000000000000000000000000000000000000000600052603260045260246000fd5b6020026020010181815250506003600082815260200190815260200160002060090160003373ffffffffffffffffffffffffffffffffffffffff1673ffffffffffffffffffffffffffffffffffffffff16815260200190815260200160002054848281518110610a51577f4e487b7100000000000000000000000000000000000000000000000000000000600052603260045260246000fd5b60200260200101818152505060006003600083815260200190815260200160002060060154905060008167ffffffffffffffff811115610aba577f4e487b7100000000000000000000000000000000000000000000000000000000600052604160045260246000fd5b604051908082528060200260200182016040528015610ae85781602001602082028036833780820191505090505b50905060005b82811015610c32576000600360008681526020019081526020016000206007016000600184610b1d919061238d565b8152602001908152602001600020604051806040016040529081600082018054610b4690612461565b80601f0160208091040260200160405190810160405280929190818152602001828054610b7290612461565b8015610bbf5780601f10610b9457610100808354040283529160200191610bbf565b820191906000526020600020905b815481529060010190602001808311610ba257829003601f168201915b5050505050815260200160018201548152505090508060200151838381518110610c12577f4e487b7100000000000000000000000000000000000000000000000000000000600052603260045260246000fd5b602002602001018181525050508080610c2a906124c4565b915050610aee565b5060036000848152602001908152602001600020600801805480602002602001604051908101604052809291908181526020016000905b82821015610d15578382906000526020600020018054610c8890612461565b80601f0160208091040260200160405190810160405280929190818152602001828054610cb490612461565b8015610d015780601f10610cd657610100808354040283529160200191610d01565b820191906000526020600020905b815481529060010190602001808311610ce457829003601f168201915b505050505081526020019060010190610c69565b50505050858481518110610d52577f4e487b7100000000000000000000000000000000000000000000000000000000600052603260045260246000fd5b602002602001018190525080848481518110610d97577f4e487b7100000000000000000000000000000000000000000000000000000000600052603260045260246000fd5b602002602001018190525050508080610daf906124c4565b9150506105f0565b506040518061014001604052808b81526020018a8152602001898152602001888152602001878152602001868152602001858152602001838152602001828152602001848152509a505050505050505050505090565b610e16816115d2565b610e1f57600080fd5b80600160003373ffffffffffffffffffffffffffffffffffffffff1673ffffffffffffffffffffffffffffffffffffffff1681526020019081526020016000209080519060200190610e72929190611634565b5033600282604051610e849190611fdc565b908152602001604051809103902060006101000a81548173ffffffffffffffffffffffffffffffffffffffff021916908373ffffffffffffffffffffffffffffffffffffffff16021790555050565b6060600160003373ffffffffffffffffffffffffffffffffffffffff1673ffffffffffffffffffffffffffffffffffffffff1681526020019081526020016000208054610f1f90612461565b80601f0160208091040260200160405190810160405280929190818152602001828054610f4b90612461565b8015610f985780601f10610f6d57610100808354040283529160200191610f98565b820191906000526020600020905b815481529060010190602001808311610f7b57829003601f168201915b5050505050905090565b600460009054906101000a900473ffffffffffffffffffffffffffffffffffffffff1681565b610fd1866115d2565b8015610fe25750610fe1856115d2565b5b610feb57600080fd5b83831015610ff857600080fd5b60028151101561100757600080fd5b60005b81518110156110785761105c82828151811061104f577f4e487b7100000000000000000000000000000000000000000000000000000000600052603260045260246000fd5b60200260200101516115d2565b61106557600080fd5b8080611070906124c4565b91505061100a565b50600060036000805481526020019081526020016000209050338160000160006101000a81548173ffffffffffffffffffffffffffffffffffffffff021916908373ffffffffffffffffffffffffffffffffffffffff160217905550868160010190805190602001906110ec929190611634565b5085816002019080519060200190611105929190611634565b5084816003018190555083816004018190555082816005018190555081518160060181905550818160080190805190602001906111439291906116ba565b5060005b82518110156111e657600082600701600060018560060154611169919061238d565b815260200190815260200160002090508382815181106111b2577f4e487b7100000000000000000000000000000000000000000000000000000000600052603260045260246000fd5b60200260200101518160000190805190602001906111d1929190611634565b505080806111de906124c4565b915050611147565b507fe944d8ea112591bd5e0e3c2dfd471875a6bf4e30f3ea9d4d975972168700ee2060005433898989898989604051611226989796959493929190612112565b60405180910390a1600080815480929190611240906124c4565b919050555050505050505050565b6000548210611292576040517f08c379a000000000000000000000000000000000000000000000000000000000815260040161128990612090565b60405180910390fd5b600360008381526020019081526020016000206006015481106112ea576040517f08c379a00000000000000000000000000000000000000000000000000000000081526004016112e1906120d0565b60405180910390fd5b60006003600084815260200190815260200160002060090160003373ffffffffffffffffffffffffffffffffffffffff1673ffffffffffffffffffffffffffffffffffffffff1681526020019081526020016000205414611380576040517f08c379a000000000000000000000000000000000000000000000000000000000815260040161137790612050565b60405180910390fd5b42600360008481526020019081526020016000206003015411156113d9576040517f08c379a00000000000000000000000000000000000000000000000000000000081526004016113d090612070565b60405180910390fd5b4260036000848152602001908152602001600020600401541015611432576040517f08c379a0000000000000000000000000000000000000000000000000000000008152600401611429906120b0565b60405180910390fd5b600360008381526020019081526020016000206005015434101561148b576040517f08c379a000000000000000000000000000000000000000000000000000000000815260040161148290612030565b60405180910390fd5b600181611498919061238d565b6003600084815260200190815260200160002060090160003373ffffffffffffffffffffffffffffffffffffffff1673ffffffffffffffffffffffffffffffffffffffff16815260200190815260200160002081905550600360008381526020019081526020016000206007016000600183611514919061238d565b81526020019081526020016000206001016000815480929190611536906124c4565b91905055506003600083815260200190815260200160002060000160009054906101000a900473ffffffffffffffffffffffffffffffffffffffff1673ffffffffffffffffffffffffffffffffffffffff166108fc60036000858152602001908152602001600020600501549081150290604051600060405180830381858888f193505050501580156115cd573d6000803e3d6000fd5b505050565b60006001825110159050919050565b604051806101400160405280606081526020016060815260200160608152602001606081526020016060815260200160608152602001606081526020016060815260200160608152602001606081525090565b82805461164090612461565b90600052602060002090601f01602090048101928261166257600085556116a9565b82601f1061167b57805160ff19168380011785556116a9565b828001600101855582156116a9579182015b828111156116a857825182559160200191906001019061168d565b5b5090506116b6919061171a565b5090565b828054828255906000526020600020908101928215611709579160200282015b828111156117085782518290805190602001906116f8929190611634565b50916020019190600101906116da565b5b5090506117169190611737565b5090565b5b8082111561173357600081600090555060010161171b565b5090565b5b80821115611757576000818161174e919061175b565b50600101611738565b5090565b50805461176790612461565b6000825580601f106117795750611798565b601f016020900490600052602060002090810190611797919061171a565b5b50565b60006117ae6117a9846121ca565b6121a5565b905080838252602082019050828560208602820111156117cd57600080fd5b60005b8581101561181757813567ffffffffffffffff8111156117ef57600080fd5b8086016117fc8982611889565b855260208501945060208401935050506001810190506117d0565b5050509392505050565b600061183461182f846121f6565b6121a5565b90508281526020810184848401111561184c57600080fd5b61185784828561241f565b509392505050565b600082601f83011261187057600080fd5b813561188084826020860161179b565b91505092915050565b600082601f83011261189a57600080fd5b81356118aa848260208601611821565b91505092915050565b6000813590506118c281612713565b92915050565b6000602082840312156118da57600080fd5b600082013567ffffffffffffffff8111156118f457600080fd5b61190084828501611889565b91505092915050565b60008060008060008060c0878903121561192257600080fd5b600087013567ffffffffffffffff81111561193c57600080fd5b61194889828a01611889565b965050602087013567ffffffffffffffff81111561196557600080fd5b61197189828a01611889565b955050604061198289828a016118b3565b945050606061199389828a016118b3565b93505060806119a489828a016118b3565b92505060a087013567ffffffffffffffff8111156119c157600080fd5b6119cd89828a0161185f565b9150509295509295509295565b600080604083850312156119ed57600080fd5b60006119fb858286016118b3565b9250506020611a0c858286016118b3565b9150509250929050565b6000611a228383611a82565b60208301905092915050565b6000611a3a8383611be8565b905092915050565b6000611a4e8383611cd2565b905092915050565b6000611a628383611d30565b905092915050565b6000611a768383611fbe565b60208301905092915050565b611a8b816123e3565b82525050565b611a9a816123e3565b82525050565b6000611aab82612277565b611ab581856122fa565b9350611ac083612227565b8060005b83811015611af1578151611ad88882611a16565b9750611ae3836122b9565b925050600181019050611ac4565b5085935050505092915050565b6000611b0982612282565b611b13818561230b565b935083602082028501611b2585612237565b8060005b85811015611b615784840389528151611b428582611a2e565b9450611b4d836122c6565b925060208a01995050600181019050611b29565b50829750879550505050505092915050565b6000611b7e8261228d565b611b88818561231c565b935083602082028501611b9a85612247565b8060005b85811015611bd65784840389528151611bb78582611a42565b9450611bc2836122d3565b925060208a01995050600181019050611b9e565b50829750879550505050505092915050565b6000611bf382612298565b611bfd818561232d565b935083602082028501611c0f85612257565b8060005b85811015611c4b5784840389528151611c2c8582611a56565b9450611c37836122e0565b925060208a01995050600181019050611c13565b50829750879550505050505092915050565b6000611c6882612298565b611c72818561233e565b935083602082028501611c8485612257565b8060005b85811015611cc05784840389528151611ca18582611a56565b9450611cac836122e0565b925060208a01995050600181019050611c88565b50829750879550505050505092915050565b6000611cdd826122a3565b611ce7818561234f565b9350611cf283612267565b8060005b83811015611d23578151611d0a8882611a6a565b9750611d15836122ed565b925050600181019050611cf6565b5085935050505092915050565b6000611d3b826122ae565b611d458185612360565b9350611d5581856020860161242e565b611d5e8161259a565b840191505092915050565b6000611d74826122ae565b611d7e8185612371565b9350611d8e81856020860161242e565b611d978161259a565b840191505092915050565b6000611dad826122ae565b611db78185612382565b9350611dc781856020860161242e565b80840191505092915050565b6000611de0602183612371565b9150611deb826125ab565b604082019050919050565b6000611e03601683612371565b9150611e0e826125fa565b602082019050919050565b6000611e26602383612371565b9150611e3182612623565b604082019050919050565b6000611e49601383612371565b9150611e5482612672565b602082019050919050565b6000611e6c602283612371565b9150611e778261269b565b604082019050919050565b6000611e8f601583612371565b9150611e9a826126ea565b602082019050919050565b6000610140830160008301518482036000860152611ec38282611aa0565b91505060208301518482036020860152611edd8282611be8565b91505060408301518482036040860152611ef78282611be8565b91505060608301518482036060860152611f118282611cd2565b91505060808301518482036080860152611f2b8282611cd2565b91505060a083015184820360a0860152611f458282611cd2565b91505060c083015184820360c0860152611f5f8282611cd2565b91505060e083015184820360e0860152611f798282611afe565b915050610100830151848203610100860152611f958282611b73565b915050610120830151848203610120860152611fb18282611cd2565b9150508091505092915050565b611fc781612415565b82525050565b611fd681612415565b82525050565b6000611fe88284611da2565b915081905092915050565b60006020820190506120086000830184611a91565b92915050565b600060208201905081810360008301526120288184611d69565b905092915050565b6000602082019050818103600083015261204981611dd3565b9050919050565b6000602082019050818103600083015261206981611df6565b9050919050565b6000602082019050818103600083015261208981611e19565b9050919050565b600060208201905081810360008301526120a981611e3c565b9050919050565b600060208201905081810360008301526120c981611e5f565b9050919050565b600060208201905081810360008301526120e981611e82565b9050919050565b6000602082019050818103600083015261210a8184611ea5565b905092915050565b600061010082019050612128600083018b611fcd565b612135602083018a611a91565b81810360408301526121478189611d69565b9050818103606083015261215b8188611d69565b905061216a6080830187611fcd565b61217760a0830186611fcd565b61218460c0830185611fcd565b81810360e08301526121968184611c5d565b90509998505050505050505050565b60006121af6121c0565b90506121bb8282612493565b919050565b6000604051905090565b600067ffffffffffffffff8211156121e5576121e461256b565b5b602082029050602081019050919050565b600067ffffffffffffffff8211156122115761221061256b565b5b61221a8261259a565b9050602081019050919050565b6000819050602082019050919050565b6000819050602082019050919050565b6000819050602082019050919050565b6000819050602082019050919050565b6000819050602082019050919050565b600081519050919050565b600081519050919050565b600081519050919050565b600081519050919050565b600081519050919050565b600081519050919050565b6000602082019050919050565b6000602082019050919050565b6000602082019050919050565b6000602082019050919050565b6000602082019050919050565b600082825260208201905092915050565b600082825260208201905092915050565b600082825260208201905092915050565b600082825260208201905092915050565b600082825260208201905092915050565b600082825260208201905092915050565b600082825260208201905092915050565b600082825260208201905092915050565b600081905092915050565b600061239882612415565b91506123a383612415565b9250827fffffffffffffffffffffffffffffffffffffffffffffffffffffffffffffffff038211156123d8576123d761250d565b5b828201905092915050565b60006123ee826123f5565b9050919050565b600073ffffffffffffffffffffffffffffffffffffffff82169050919050565b6000819050919050565b82818337600083830152505050565b60005b8381101561244c578082015181840152602081019050612431565b8381111561245b576000848401525b50505050565b6000600282049050600182168061247957607f821691505b6020821081141561248d5761248c61253c565b5b50919050565b61249c8261259a565b810181811067ffffffffffffffff821117156124bb576124ba61256b565b5b80604052505050565b60006124cf82612415565b91507fffffffffffffffffffffffffffffffffffffffffffffffffffffffffffffffff8214156125025761250161250d565b5b600182019050919050565b7f4e487b7100000000000000000000000000000000000000000000000000000000600052601160045260246000fd5b7f4e487b7100000000000000000000000000000000000000000000000000000000600052602260045260246000fd5b7f4e487b7100000000000000000000000000000000000000000000000000000000600052604160045260246000fd5b6000601f19601f8301169050919050565b7f5573657220646f6573206e6f74206861766520656e6f7567682062616c616e6360008201527f6500000000000000000000000000000000000000000000000000000000000000602082015250565b7f557365722068617320616c726561647920766f74656400000000000000000000600082015250565b7f557365722068617320747269656420766f74696e6720696e207468652066757460008201527f7572650000000000000000000000000000000000000000000000000000000000602082015250565b7f506f6c6c20646f6573206e6f7420657869737400000000000000000000000000600082015250565b7f557365722068617320747269656420766f74696e6720666f722074686520706160008201527f7374000000000000000000000000000000000000000000000000000000000000602082015250565b7f4f7074696f6e20646f6573206e6f742065786973740000000000000000000000600082015250565b61271c81612415565b811461272757600080fd5b5056fea264697066735822122013828b3ffd7d6a6d74c6f8385092e4eae347b264f5285e237a9ed5a410098dcf64736f6c63430008040033",
  "linkReferences": {},
  "deployedLinkReferences": {}
}